:020000021000EC
:10005400130101FD2326810213040103232EA4FCB2
:10006400232604FE6F0080028327C4FE0327C4FDF9
:100074003307F700B7074000034707002380E70072
:100084008327C4FE938717002326F4FE8327C4FE28
:100094000327C4FDB307F70083C70700E39607FCF3
:1000A40013000000138507000324C1021301010398
:1000B40067800000130101FF23261100232481001F
:1000C40013040101B70701001385C70EEFF05FF8B1
:1000D40093070000138507008320C10003248100D7
:0800E400130101016780000017
:0D00EC0068656C6C6F20776F726C6421008A
:04000003100000B831
:00000001FF
